:020000040000fa
:080000000002040000000000f2
:020000040000fa
:100400000fd92100007f24000001880000000000b7
:100410000c000700a033230001002000110007009a
:10042000000020000000e000020032000000020096
:1004300000000000681e0200000000000040da001a
:100440000000fe004440a900002020000000e00061
:100450000300320000002000a00188004440a800f2
:100460000000060091018800800078000000eb0089
:1004700015003700e280400032a0b4009101ba00bc
:10048000e280400032a0b4009102ba00e280400055
:1004900032a0b4000002eb00472bde00f507b200eb
:1004a000602ce10004003a000059eb008301e900f0
:1004b000fdff3e00040037006128e100010032002a
:1004c0000082eb00040007001101ba000200e00006
:1004d000e8ff3a00000006003159ba008301e90044
:1004e0000c0032002159ba008301e90008003200f3
:1004f0000400e00003003a00e280400032a0b400b3
:10050000f5ff370011d9ba008301e900faff3a007c
:100510008100e800e180400032a0b4000000060045
:10052000c21a040000000000f01a040000000000dd
:10053000b61b040000000000041d040000000000c1
:100540003e1e040000000000161904000000000018
:10055000282f040000000000fa2e04000000000014
:10056000d62f0400000000003e3004000000000010
:100570003e250400000000000e27040000000000db
:100580001435040000000000bc310400000000002d
:10059000f831040000000000d00204000000000058
:1005a000881f78000204780014000700080040004b
:1005b0004f047800000006000000fa00881f780051
:1005c000000478003fb99700ea8157008000780066
:1005d000002d200031000700800078000000e000be
:1005e000020035000040eb0000f4780001007800c4
:1005f0004f0478000080fa00000006008001eb0044
:100600000200370061f079008301e800828f510019
:10061000fcff3a00000006008001eb0002003700fa
:10062000817178008301e800828f5100fcff3a005d
:100630000000060000037800800178000002eb0053
:10064000010037008059780084025100820f520067
:100650000900320064c078000402e8000004e000f1
:10066000f8ff3a00830078008058eb0005804100d5
:10067000808f5000fcff3a00060078000000060062
:1006800080007800010037000000e8001004e0005e
:10069000fdff3a0001005000000006006200fa0071
:1006a000889fbe008a9fbe000004be00020578003d
:1006b0008300780060f92f000f004000b0000700b1
:1006c00088979f0099979f000000eb00a09f9f00d4
:1006d0009a4578000b80fb000000ea00cf04de00a2
:1006e00050c2b30080cf55000200320009047800e8
:1006f000010037000904e9000800e0000b003400a5
:100700001f909700080178008a0078008f91970069
:100710000300010090979f000000e000930032006a
:100720002f98970000004400a09f9f0009054500f6
:1007300050c2b30080cf5500040032000b04e0002b
:10074000e3ff3a002f989700890037000000eb0084
:10075000809f9f00f0979f00e0979f00d0979f0099
:10076000c0979f00b0979f00c09f9f00090037006f
:1007700020d82100008050000000400061d72100f7
:10078000e10078004f98970001007000c09f9f0023
:100790000a05e8001a4478008800fb0020d82100f0
:1007a0007c000700800078000000e000f0ff3a00c5
:1007b000a0c2b300804f54000e003a00bf889700db
:1007c0000180e900b08f9f0010007800b09f9f006b
:1007d0000000e00005003d000000ea00b09f9f001f
:1007e0004f9897000020a000c09f9f000a05e800d6
:1007f00010003700b19f9f0009003700bf98970095
:10080000f0ff2700808f5000040032006a08b90012
:100810000000410003004000b09f9f000a05e8006f
:100820001a01fb0003fd2f0003004100e90f5000f7
:10083000f2ff3600e0c2b3009a4f1000040032000d
:100840000080eb00909f9f008a0478001c00370016
:100850008a04e800a0c2b300994f100007003a00d4
:10086000bf8897000180e900b08f9f0010007800da
:10087000909f9f008a84e800110037000000eb0081
:10088000909f9f00090037009f989700f0ff270076
:10089000808f5000040032006a08b9000000410057
:1008a00003004000909f9f008904e8001901fb00ad
:1008b00003fd2f0003004100e90f5000f2ff360056
:1008c000194478008800fb0080d82100310007001f
:1008d0000000e00002003a00004478000100370008
:1008e0008904e800a87f9f0080c6b300804f5400b1
:1008f00004003a00994f14000a003a006640500084
:1009000006003700c0c6b300804f540005003a000f
:10091000994f140003003a0065404000a07f9f00fb
:100920008904e8000905e800cbfb2f008f8545000e
:100930001901fb0060f92f000f0040000084e8005f
:100940008b01780080007800080078001a0007000a
:100950000000e00005003a008b00780008007800f5
:10096000580107000000e00059ff3d000080eb0047
:100970004f05be004f04be000080fa0000000600d4
:100980000200fa00f1bf9f00010878000080fa0021
:1009900000000600040037000204e00001003a00f5
:1009a000000005000000e80010417800814f510070
:1009b000f9ff3a0000000600889fbe008a1f7800f9
:1009c0000004780001027800824478000305780072
:1009d000e0c6b300804f5100d200320015003c0049
:1009e0006b405000804f5100240032000a003c0050
:1009f00070405000804f51000f01320065404000b0
:100a0000804f51007400320050c2b300804f51003b
:100a100020013a001c01370040c6b300804f51004e
:100a20001b00320065404000804f510019013a0020
:100a30001700370030c7b300804f5100fe0032006e
:100a400007003c0064405000804f510062003200bb
:100a50000040e800804f51000e013a00e7003700e7
:100a600050c7b300804f51005b003200634040002c
:100a7000804f510007013a00570037009180e9008c
:100a8000010a780078009000917178000701370022
:100a9000a8609000c0c6b30080cf50000a003a00a2
:100aa0009400780064805000000a78001000be00b6
:100ab0004f89de00cf91de000002be000203780005
:100ac000820378001300370010c7b30080cf5000b6
:100ad00003003200a0c6b30080cf500006003a00e9
:100ae0009400780068805000000a78003002be0050
:100af0002003be00070037001480e900000a7800d8
:100b00001000780000027800cfa2de000503780014
:100b100086037800049cbe000694be00a860900086
:100b200080c6b30080cf50000e00320020c6b30054
:100b300080cf500005003a000400fb00cf80de00ab
:100b400001017800820178000a00370040c7b30035
:100b500080cf5000030032006640400080cf50003c
:100b600006003a0004007800cf80de000101780022
:100b700082017800009cbe000294be003800be00d6
:100b80002801be00e00f5000e08f5800e00f590030
:100b9000e08f590003003d0078009000d1c2b300ff
:100ba0000a003700081090000018a300030032006c
:100bb00078009000b1c2b300040037000008a30021
:100bc000530032007800900001c2b3000175780034
:100bd0000000e8004d003700a8609000c0c6b300d8
:100be00080cf500006003a009400780064805000e6
:100bf000000a78001002be006033b800130037000e
:100c000010c7b30080cf500003003200a0c6b3006d
:100c100080cf500006003a009400780068805000b1
:100c2000000a78003002be002003be000700370033
:100c30001480e900000a78001000780000027800b3
:100c4000050020000600200007002000049cbe00d4
:100c50000694be00a860900080c6b30080cf50000c
:100c60000e00320020c6b30080cf500005003a00cd
:100c70000480fb000100200002002000030020008f
:100c80000a00370040c7b30080cf50000300320095
:100c90006640400080cf500006003a000400780013
:100ca000010020000200200003002000009cbe0084
:100cb0000294be00081090000038a3001400320017
:100cc0003800be002801be00e00f5000e08f580041
:100cd000e00f5900e08f59000d00320080c7b300cb
:100ce00080cf54000300320080c5b30080cf540091
:100cf00007003a007800900001c3b3000175780046
:100d00008000e80009f578000080e8007004980091
:100d10007800900000004500600498008940780049
:100d200042003700a8609000c0c6b30080cf5000da
:100d3000250032000a003c006440500080cf500083
:100d40002800320000c0e80080cf500014003200bc
:100d50006840500080cf500022003a000a0037005f
:100d600040c7b30080cf50001e00320066404000f4
:100d700080cf50001b0032006940500080cf5000ef
:100d800018003a00060037001480e900000a7800d5
:100d900010007800485c9000084878004500370053
:100da0001480e900000a78001002780068089000ba
:100db000cf80de000101780082017800009abe0039
:100dc0000292be003b0037001480e900000a780060
:100dd0001001780068089000cf80de000089be0016
:100de000340037001480e900000a78001000780011
:100df000680c9000080878002e0037001180e90088
:100e00008008780010007800cf80de0001017800b3
:100e100082017800009cbe000294be007800900021
:100e2000000045006004980081c7b3000800780006
:100e3000ee0007001f0037001480e900000a780068
:100e40001000780060049800580990000200e0004b
:100e500002003d000afe0700090037008000eb0099
:100e60006f020700800078000000e00003003200fd
:100e70006800900000805000010037005808900082
:100e8000100c98000b003700780090000275780075
:100e90000600370078009000800045000904e0005b
:100ea00001003a0059c2b300894878000000e80008
:100eb000700498000000eb004f0578004f04be005e
:100ec000000006000400fa00889fbe008a9fbe0052
:100ed0008c1f7800000478000106780070089000ec
:100ee000f8009000010050008808900001005000b8
:100ef0009808900001005000a808900001005000e0
:100f0000b808900001005000c8089000810550000a
:100f10000002220090bf9f0000032300a0bf9f009b
:100f2000081090000028a30018003a000b00e00011
:100f3000160034008b04780009057800e28f540015
:100f4000020036002a002000020037000900e000fd
:100f50000b00340058009000c80190000a0178008e
:100f6000ee80570003000100500498000000e000ec
:100f7000960032006808900000004500600c980060
:100f80008a8454004240a900ebff3c0078019000a5
:100f90000200e0000b00340058009000c8019000ef
:100fa0008c00780003000100500498000000e0006d
:100fb0008600320068089000f800900001004000b0
:100fc000600c9800880c90000900e00015003400c7
:100fd00009057800e28f5400020036002a00200044
:100fe000020037000900e0000b00340058009000b8
:100ff000c80190000a017800ec805700030001004e
:10100000500498000000e000700032006808900072
:1010100000004500600c98008a8454004240a900fa
:10102000ebff3c00180990000200e0000b003400c8
:10103000e800900058009000c801900003000100f3
:10104000500498000000e000600032006808900042
:101050009808900001004000600c9800a80c9000d7
:101060000900e0001500340009057800e28f540003
:10107000020036002a002000020037000900e000cc
:101080000b00340058009000c80190000a0178005d
:10109000ec80570003000100500498000000e000bd
:1010a0004a0032006808900000004500600c98007b
:1010b0008a8454004240a900ebff3c0038099000ac
:1010c0000200e0000d003400e800900018089000d5
:1010d0008080400058009000c8019000030001008b
:1010e000500498000000e0003800320068089000ca
:1010f000b808900001004000600c9800c80c9000f7
:101100000900e0001500340009057800e28f540062
:10111000020036002a002000020037000900e0002b
:101120000b00340058009000c80190000a017800bc
:10113000ec80570003000100500498000000e0001c
:10114000220032006808900000004500600c980002
:101150008a8454004240a900ebff3c000810900034
:101160000028a3001b0032000b00e000190034002f
:101170008b04780009057800e28f540002003600e5
:101180002a002000020037000900e0000b003400b4
:1011900058009000c80190000a017800ee805700c6
:1011a00003000100500498000000e0000700320036
:1011b0006808900000004500600c98008a84540084
:1011c0004240a90003003400eaff37000080eb0032
:1011d000010037000000eb004f0678004f05be000d
:1011e0004f04be000080fa00000006002f03b0008c
:1011f000889fbe008a9fbe008c9fbe008e1f780015
:101200000007780050d62100c0b79f0080c5b3000a
:1012100080cf50000800320042d52100c2b79f00a5
:101220007740400080cf500003003a008300200048
:10123000b3b79f000a00370080c7b30080cf5000cb
:1012400005003200a4002000b4b79f0080c5b300a1
:1012500080cf500002003a0005012000b5b79f0082
:101260003e04be002e05be0040c6b30080cf500035
:10127000030032006540400080cf50000b003a0070
:10128000e00f5400e08f5c00e00f5d00e08f5d0038
:1012900006003d006000b8006011b800080450006e
:1012a000898458000a0559008b8559003fb1970081
:1012b000e80f510003003200f00f510045003a00e2
:1012c000020037003c002000010037004c002000e5
:1012d000e00f5400e08f5c00e00f5d00e08f5d00e8
:1012e00005003a005e08900083012000a3b79f002c
:1012f0000000e000080032003fb297000400e9005f
:1013000008006000cfb297006540780090df9f0032
:1013100070012000a0b79f008c0078008100e900d8
:10132000050033008b05d1000a85d3008984d300e2
:101330000884d300f9ff3700089fbe000a97be005b
:101340002fb197000200e90023fc2f008f8141009c
:1013500000844100140037002fb097000000e9001e
:10136000a0b79f003fb197000200e90004006000b1
:10137000cfb19700635478003e00be002e01be003e
:101380000c0278000402e900050033008381d100db
:101390000281d3008180d3000080d300f9ff3700a1
:1013a000009fbe000297be003e02be002e03be009c
:1013b000e00f5200e08f5a00e00f5b00e08f5b000f
:1013c000da0034002fb097000000e000e2ff3c009c
:1013d000d6003700ae60900080c6b30080cf5000ca
:1013e0000b00320006003c000104e000080032005f
:1013f0006640500080cf500073003a000400370070
:10140000c0c6b30080cf50006f003a0031003700f3
:10141000080178000800e00005003a005e0890002e
:1014200081012000a1b79f000000e0000900320008
:10143000bfb19700110009000381d8008000fd00b2
:101440004fb297006440780090df9f007501200044
:10145000a5b79f003fb29700110009000481d80092
:1014600080017800afb297000500e90021fc2f0051
:101470008f804000008240000c003700bfb2970010
:10148000110009008501d800000178002fb09700f5
:101490000000e900a0b79f000590b900008051004e
:1014a000cfb0970061527800820178000300e0001d
:1014b000030034002fb197000200e000efff3c0072
:1014c00003007800cf80de000101780082017800ff
:1014d0003a0037000806be00e00f5400e08f5c00c1
:1014e00005003a005e08900083012000a3b79f002a
:1014f0000000e000090032003fb297006121b9000e
:101500000c00be00a2020700cfb297006540780031
:1015100090df9f0070012000a0b79f003fb29700ae
:101520006121b9000c00be001b0207000006be00ce
:10153000afb297000500e90021fc2f008f8040002a
:101540008080400091b79f00110037003fb19700a5
:101550006114b9000801be000c00be00ff010700c5
:101560000005be00afb197008301e900a3b79f005b
:101570000801be00b4000700000056001fb297002b
:10158000cfb297006552780094b79f000a06be005c
:10159000e00f5600e08f5e00030034002fb097008c
:1015a0000000e000e9ff3c004feade00cfa2de00d1
:1015b0000c00be000401780084017800009fbe008a
:1015c0000297be0059003700e00f5400e08f5c0026
:1015d000e00f5d00e08f5d0005003a005e089000be
:1015e00081012000a1b79f000000e0000d00320043
:1015f0003fb1970002027800cfa2de000503780019
:10160000860378000800be000a01be00e40207005d
:101610004fb297006440780090df9f007501200072
:10162000a5b79f003fb1970002027800cfa2de006d
:1016300005037800860378000800be000a01be009a
:10164000d0020700009fbe000297be00afb1970016
:101650000300e90024fc2f000f02420000064200b4
:1016600024003700bfb2970005047800cfc4de0025
:10167000090578008a0578000802be000a03be004a
:101680005fa89700efa897007fa997008fb19700f8
:10169000c7020700d0b79f00e1b79f00f2b79f00d5
:1016a00083bf9f002fb097000000e900a0b79f0004
:1016b0000802be000a03be005fb09700efb09700bb
:1016c0007fb197008fb997003f0307005faa97008b
:1016d00000005200cfb29700655678005fb09700c7
:1016e000efb097007fb197008fb99700009fbe00c1
:1016f0000297be003e00be002e01be00d0af9f008c
:10170000e1af9f00f2af9f0083b79f00e00f500052
:10171000e08f5800e00f5900e08f590003003400bb
:10172000afb097000100e000ceff3c003fb1970052
:10173000e80f510013003a000e1090000038a3008b
:1017400010003200afb19700f78f510006003e0045
:1017500024fc2f000f0242008300420000c3b300ac
:10176000914f100007003200afb297008502e900e8
:10177000a5b79f0000c3b30021fc2f008f8040005d
:1017800080f07a00afb1970078811100120f9800b5
:101790006e00900024fc2f000f02420083004200e4
:1017a00096fb07001e0990005e089000800f510014
:1017b00006003d0002005000000f98000e1090003f
:1017c0000040a100001798000f0037000000e00063
:1017d0000d003d000e10900074006000f00f5000ee
:1017e00009003a007e089000fe00900001005000c1
:1017f0008e08900001005000020050004240a900f5
:1018000001003400000f98004f0778004f06be001b
:101810004f05be004f04be002f03b10000000600bc
:101820008001eb00040037008301e80090cf100036
:10183000040032000000e800828f5100faff3a00f5
:101840000000eb0000000600020ab900001bb9000e
:101850000200b80081004200810043000000060041
:10186000889fbe008a9fbe00010578000100e0004d
:101870000400350008003c000000e00020003200b9
:101880000500370060001000e080180002003b00f7
:1018900001f02c001a0037000004be006011b800ef
:1018a0006b0920000982cf00020039000882cf00b6
:1018b0000441b000694252000e00320008003b00b3
:1018c00082817100610164008904d1000884d30021
:1018d0008b05e8000442e800f9ff3a0005003700f4
:1018e0000804440089844c008b05e9000442e900a7
:1018f000fbff3a00380107000af0a70001f0a00042
:101900004f05be004f04be0000000600889fbe00c9
:101910008a9fbe008c1f7800550107005c013300d0
:1019200003866c006450e1002e0032006420e10068
:10193000330032006150e1002f0032006120e100ed
:101940003100320085855500eb07b000090020000a
:1019500008042000050037000804440089844c0076
:101960000a0031000603430087834b000001530047
:1019700081815b00f8ff33000203be000800a00075
:101980000804440089844c00f6ff3900c639dd00a4
:101990008301730001003200130020008904d1008c
:1019a0000884d3000998a300050032000800a700ae
:1019b0000300a0008904d1000884d3008b05e8004f
:1019c0008904d1000884d3000001eb000281d20019
:1019d0000101070001f0a1000cf0a70001f0a00038
:1019e000340137006420e100360132000801be00f6
:1019f0000200be00f7ff37006120e1003101320034
:101a00006000b800f3ff37000000200001f8270055
:101a1000f0ff3700140020002d013700f4ff2f00e5
:101a20002b01370003f0a200889fbe008a9fbe00f2
:101a30008c1f78000e010700150133006450e1008f
:101a40004f0032006420e1005200320003826c003b
:101a500007003b000905d0000306d000820f5400a8
:101a60000c065d0002003900020032008901780096
:101a7000030678008582550004003d000003fd0048
:101a80008103fd008502ea008b854200840f72000d
:101a900002003b0060001000e08018006011b800f8
:101aa0000005eb007a28e1000a0039000600780002
:101ab000c75ddd00f707b200878075002d00370095
:101ac000828171000a017800610560008180d10087
:101ad0000080d3008502e900f9ff3b0006044000c6
:101ae0008784480002003b0060041400e0841c006e
:101af0000988a300070032008a8171008281710089
:101b0000610164008904d1000884d3008b05e800da
:101b1000170037000978a30013003a000b00e0001b
:101b2000130034008b05e9000804440089844c004c
:101b30000a4474000978a3000d003a000b00e0008d
:101b4000070034008b05e9000804440089844c0038
:101b500001003a000b0020000978a300f7ff3200d3
:101b60000001eb0002003700828171000a01780059
:101b7000990007000cf0a70001f0a000cd0037008d
:101b80006420e10002003a00838f6c00cd00330036
:101b90000801be000200be00c6003700889fbe00dc
:101ba0008a9fbe008c1f7800b1000700b800330088
:101bb00003866c006450e100240032006420e100e0
:101bc000270032006150e100220032006120e10074
:101bd000210032008b854200eb07b1000134b800d0
:101be000003ab8000804420089844a00013ab8006b
:101bf0000030b8008880400009014a00040033002a
:101c00000000400081804800020149008b05e90086
:101c1000c909dd00830170000100320013002000bb
:101c2000c814de004814dd004709de001200b200cf
:101c3000c808de00088470006700070001f0a100fa
:101c40000cf0a70001f0a0009a0037006120e1002d
:101c50009c0032000801be000200be00f7ff370002
:101c60006150e100fcff3a00960037000001be0021
:101c7000b20007000470a70003f0a10003f8a3005e
:101c800013003a006509b100100032000900350068
:101c90006928e1000200350001002800000005006d
:101ca00000004000818048008502e900fcff3a0006
:101cb00000000600f88f4200050035008100d100c9
:101cc0000080d3008502e800fcff3a000000060017
:101cd0008000eb00000005000001be009700070037
:101ce0000470a70003f0a1006509b10016003200de
:101cf0000d0035006828e10006003500f0ff2f00d8
:101d0000f1ff27000300e00013003b000100280062
:101d10000000050000004000818048008502e900c5
:101d2000fcff3a0008003700f88f420002003c0038
:101d30008000eb00000005008100d1000080d3008e
:101d40008502e800fcff3a000300e00002003b00cf
:101d500060001000e080180000000600839f68000b
:101d60000100e00002003d0060001000e08018006b
:101d70000300e00002003d0060011100e081190055
:101d8000050007004f00e00002003b00600010006b
:101d9000e0801800000006006022b8000602200063
:101da0000000d0008180d2000482d2008582d2005f
:101db0000000a0000202520083825a00030031009a
:101dc0000202420083824a000000a1000603e900eb
:101dd000f3ff3a00000006008100200061805500fa
:101de0000b003d000b00200061fe2f000100e10010
:101df0001d00340082817100610164008904d100fa
:101e00000884d3000000e800faff3a0071002000c7
:101e100061006400030070000200600009003200ed
:101e200061044400e0844c000988a50005003200ec
:101e30008b05e8006808e10002003a008904d1003f
:101e40000884d300f20f20000258e10005003d0095
:101e5000c75ddd00f907b2008980750008007800d1
:101e6000000006000bf827008b007800000005003a
:101e70000004be00310007000003be000405be00e0
:101e80000200be002d000700844f75000000060010
:101e90000200be006450e100050036006420e1004d
:101ea000020036000968a30001003a000800be00e5
:101eb0000160a0004f0678004f05be004f04be0031
:101ec00000000600f0ff2f00f1ff2700f9ff3700a8
:101ed000889fbe008a9fbe00841f7800e4ff070031
:101ee0004f00780011003300f0ff2f00838f6c004b
:101ef00006003b00040565000a00a7000800370043
:101f000009f0a6001000200008003700820f5400de
:101f1000838f5c00030039001000200001003e00a8
:101f20000000200009f0a7000000ea004f05be00f5
:101f30004f04be000000e00000000600c70ade00fb
:101f4000f107b200f50fb20008003200e1cf420005
:101f5000020032000170a00024000500810f700013
:101f6000010032000408050044000500810f7000e4
:101f700002003a00140005008502e900000040005c
:101f800081c04800fcff3b000170a0002400050058
:101f900081ff07000400be0000000600881f7800d3
:101fa000000478005001be004000be000400400064
:101fb000858048000601490087814900009cbe00d9
:101fc0000294be000400e1000588e1000690e100f3
:101fd0000798e10002003100680044001008e800a2
:101fe0004f04780000000600f4874700889fbe0079
:101ff0008a9fbe008c9fbe008e1f78000205be0027
:102000000004be00d4b79f00e5b79f00f6b79f005d
:1020100087bf9f000000eb00c0b79f00b0b79f00d4
:10202000a0b79f0090b79f0080b79f000d042000cd
:10203000bfb097004fb09700000140000000e000e3
:102040000f003d004f08de0000007100c0b79f0088
:102050009e00070001003d0012002000a1000700c3
:1020600001003d0012002000a6000700b10007009b
:10207000b60007000f004000c8ff0700220037002d
:102080004f08de0000067100ccb79f008f000700ec
:1020900001003d00120020009200070001003d00f9
:1020a0001200200097000700a20007000fb297005f
:1020b0009fb297002fb39700bfb39700a900070006
:1020c0000000520081805a0002015b0083815b00a6
:1020d00080b79f0091b79f00a2b79f00b3b79f0042
:1020e0000007eb009f0007000020e10001a8e100cd
:1020f00002b0e10003b8e100010031001e00200041
:102100000e005600c0b79f004fb297000400e000d9
:102110000700350010002000010020006011b80009
:1021200008047000898470000a0571008b857100b5
:102130008d06e900beff3a000400e00003003d0008
:10214000820007000f00400094ff07004fa897008f
:102150000000e00004003a000fb497009fb497001d
:102160002fb59700bfb59700940007004f07780080
:102170004f06be004f05be004f04be004f01b10028
:1021800000000600881f780018002000881f7800d3
:1021900095ff07008f87e9004f04780000000600d4
:1021a000801feb0090ff07008f87e900000006000a
:1021b000889fbe008a9fbe008c1f78006e000700bb
:1021c00007003d0073000700e00f5b00e08f5b003d
:1021d00007003d00320007000006eb000400370056
:1021e0003400070002003d002a0007001c00200008
:1021f00072000700e3ff07000203be000002be00fa
:102200000c00e00001003200220007000400be00c4
:102210000601be004f0678004f05be004f04be0009
:1022200000000600889fbe008a9fbe008c1f7800b9
:102230005100070005003d0056000700e00f5b005d
:10224000e08f5b0006003d00040037001900070026
:1022500003003d006000b8006011b80010000700e6
:1022600056000700ceff07000203be000002be00ba
:102270000c00e00001003200060007000400be0070
:102280000601be004f0678004f05be004f04be0099
:10229000000006006000b8006011b80000003700c0
:1022a00004025000858258000603590087835900b4
:1022b000000006000006eb00e00f5200e08f5a001d
:1022c000e00f5b00e08f5b00000006000180400033
:1022d00090b79f000001eb008fb097000100e00075
:1022e000000006000200700090b79f0001804000cf
:1022f00080b79f000001eb00ffa897000100e000fd
:10230000000006000200700080b79f0001804000be
:102310006faa9700cf20de0001007000f0af9f0091
:1023200004024200250007004f18de000002720080
:1023300000000600e4af9f000804440089844c00bc
:102340000a054d008b854d00000006003fb2970046
:10235000cfb297005fb39700efb3970000fe2f0056
:10236000000006003fb09700cfb097005fb1970024
:10237000efb19700000006000205be000004be0099
:10238000e00f5000e08f5800e00f5900e08f590037
:10239000000006006000b8006011b800080450009a
:1023a000898458000a0559008b8559001c002000bb
:1023b000e00f5200e08f5a00000006000800be0047
:1023c0000a01be0000000600889fbe008a9fbe0072
:1023d0008c1f78000205be000004be000006eb0062
:1023e000e00f5000e08f5800e00f5900e08f5900d7
:1023f00007003d006000b8006011b80008045000fc
:10240000898458000a0559008b8559001c0020005a
:10241000e00f5200e08f5a00e00f5b00e08f5b009e
:1024200002003d000f0007000c00a2000800be00e3
:102430000a01be00120007000203be000002be0037
:102440000c00e00001003200060007000400be009e
:102450000601be004f0678004f05be004f04be00c7
:10246000000006006000b8006011b80004025000cf
:102470008582580006035900878359000000060032
:10248000889fbe008a9fbe008c9fbe000404b800d7
:102490000506b8008904460060854e000606b800af
:1024a0000a054600e0854e000706b8008b05460089
:1024b000040eb800890446000a854e00e0854d00f0
:1024c000050eb8000a0546008b854e00060eb800c2
:1024d0008b0546000416b8000a0546008b854e00a1
:1024e0000516b8008b054600041eb8008b05460093
:1024f0000800be000a01be004f06be004f05be0028
:082500004f04be0000000600bc
:020000040000fa
:0200000401f009
:04000c00f8ff0000f9
:020000040000fa
:0200000401f009
:040010007fff00006e
:020000040000fa
:0200000401f009
:040014007fff00006a
:020000040000fa
:1000080096360000963600009636000096360000b8
:1000180096360000963600009636000096360000a8
:10002800621a000096360000963600000e33000073
:100038009636000096360000963600001636000008
:10004800963600009636000096360000462d0000d1
:100058009a2d0000a21a000096360000963600007d
:100068009636000096360000963600009636000058
:100078009636000096360000963600009636000048
:100088009636000096360000963600009636000038
:100098009636000096360000963600009636000028
:1000a8009636000096360000963600009636000018
:1000b8009636000096360000963600009636000008
:1000c80096360000963600009636000096360000f8
:1000d80096360000963600009636000096360000e8
:1000e80096360000963600009636000096360000d8
:1000f80096360000963600009636000096360000c8
:1001080096360000963600009636000096360000b7
:1001180096360000963600009636000096360000a7
:100128009636000096360000963600009636000097
:100138009636000096360000963600009636000087
:100148009636000096360000963600009636000077
:100158009636000096360000963600009636000067
:100168009636000096360000963600009636000057
:100178009636000096360000963600009636000047
:100188009636000096360000963600009636000037
:100198009636000096360000963600009636000027
:1001a8009636000096360000963600009636000017
:1001b8009636000096360000963600009636000007
:1001c80096360000963600009636000096360000f7
:1001d80096360000963600009636000096360000e7
:1001e80096360000963600009636000096360000d7
:0801f800963600009636000067
:020000040000fa
:1002080096360000963600009636000096360000b6
:1002180096360000963600009636000096360000a6
:10022800621a000096360000963600000e33000071
:100238009636000096360000963600001636000006
:10024800963600009636000096360000462d0000cf
:100258009a2d0000a21a000096360000963600007b
:100268009636000096360000963600009636000056
:100278009636000096360000963600009636000046
:100288009636000096360000963600009636000036
:100298009636000096360000963600009636000026
:1002a8009636000096360000963600009636000016
:1002b8009636000096360000963600009636000006
:1002c80096360000963600009636000096360000f6
:1002d80096360000963600009636000096360000e6
:1002e80096360000963600009636000096360000d6
:1002f80096360000963600009636000096360000c6
:1003080096360000963600009636000096360000b5
:1003180096360000963600009636000096360000a5
:100328009636000096360000963600009636000095
:100338009636000096360000963600009636000085
:100348009636000096360000963600009636000075
:100358009636000096360000963600009636000065
:100368009636000096360000963600009636000055
:100378009636000096360000963600009636000045
:100388009636000096360000963600009636000035
:100398009636000096360000963600009636000025
:1003a8009636000096360000963600009636000015
:1003b8009636000096360000963600009636000005
:1003c80096360000963600009636000096360000f5
:1003d80096360000963600009636000096360000e5
:1003e80096360000963600009636000096360000d5
:0803f800963600009636000065
:020000040000fa
:102508000d0a00003d3d00003d2000004d45000043
:102518004e550000203d00003d3d00000d0a000022
:10252800002000006d2000002d2000006d6f0000cd
:102538006420000064650000206c000075630000e2
:10254800727500000d0a00000020000073200000d2
:102558002d200000636f00006d750000746100009d
:102568007265000020610000757400006f2f000084
:102578006d6100006e750000616c00000d0a0000be
:1025880000200000742000002d2000007465000069
:102598006d700000657200006174000075720000c3
:1025a800610d00000a0000003d3d00003d3d0000b7
:1025b8003d3d00003d3d00003d3d00003d3d00002b
:1025c8003d0d00000a00000041550000544f000076
:1025d8004d410000540000004d4100004e550000e0
:1025e800414c0000004d00006f6400003a200000dc
:1025f800257300000d0a0000004300006f6d000005
:102608007574000061720000652000002d3e000016
:1026180020250000730d00000a000000546500002a
:102628006d70000065720000617400007572000032
:10263800613a000020250000642e000025300000cb
:1026480032640000204300000d0a0000004300002f
:102658006f6d0000616e000064610000206e000074
:1026680065630000756e00006f73000063750000fd
:1026780074610000210d00000a000000546500008c
:102688006d7000003a250000336400002e2500001c
:1026980030320000642000004320000020200000a9
:1026a8002020000020000000546500006d7000002c
:1026b8003a2000002d2d0000204f0000505200004d
:1026c80049540000202d00002d200000202000008b
:1026d80000410000555400004f0000004d6f0000fd
:1026e800643a0000202500002d31000034730000fa
:1026f800005600003a200000256400002e25000046
:102708003032000064560000202000002020000025
:1027180020200000202000002020000020000000d1
:10272800436d0000643a0000202500002d310000b0
:102738003573000000440000696200007520000045
:10274800260000004d6900006e7400006f690000eb
:1027580075000000546500006d7000003a2000000c
:102768002d2d0000004d00006f6400003a2000008d
:1027780041550000544f0000005600003a20000068
:102788002d2d0000004300006d6400003a20000079
:102798002d2d000000540000656d00007000000041
:1027a8005365000072760000005300006572000057
:1027b800004c000043440000004c00004544000069
:1027c8000000000011110000222200003333000035
:1027d8004444000055550000666600007777000005
:1027e8008888000099990000aaaa0000bbbb0000d5
:1027f800cccc0000dddd0000eeee0000cecd000008
:10280800acab000002020000030300000404000057
:10281800050500000606000007070000080800007c
:102828000a09000010100000101100001212000028
:10283800514300006f6e0000734200003100000039
:1028480051500000726f0000644200003200000026
:1028580051500000726f0000644200003300000015
:10286800514300006f6e0000734200003400000006
:1028780051500000726f00006442000035000000f3
:10288800514300006f6e00007342000036000000e4
:1028980096000000c8000000fa0000002c010000ab
:1028a8005e01000090010000c2010000f401000078
:1028b80042540000657300007431000000420000bb
:1028c800546500007374000032000000434f00009c
:1028d8004d54000078000000434f00004d520000a6
:1028e80078000000496e0000744d0000617400001b
:1028f80068000000494400004c450000000000004a
:020000040000fa
:102908000000fa005a3cec000080fa0000000600c3
:102918000000fa00889fbe008a1f78000005780032
:1029280081047800e38f5000010036003900200050
:102938002c0f070020ea80008a0f500002003a009e
:102948000005eb00020037000a00e00002003a0030
:1029580028ea8000010037000a047800b8089000cf
:10296800818f540024003200030036000a00e00082
:1029780003003a00040037000a00e00002003a00b1
:102988001a002000010037000005eb00390c980000
:1029980064801400600498006a09b90020c9210005
:1029a80002004000d8009000808f50000d003a00cf
:1029b8008884e80009007800be0f0700b808900076
:1029c800c0e28000808f500001003600c1e288001c
:1029d8006a09b90020c92100020040008900780076
:1029e8008e0f0700e10f550003003a008034020003
:1029f8000000000000000000ff0e07004f057800ef
:102a08004f04be000080fa00000006000000fa0033
:102a1800889fbe008a1f780080047800f10e0700a6
:102a280020ea8000890f500002003a008004eb0081
:102a3800020037000900e00002003a0028ea80009e
:102a480001003700090478000885e8000a007800ca
:102a5800980f0700280890000000e00002003200ec
:102a68006c004400930f07008a00780060c62100bc
:102a78006a0f0700e00e07000900e00003003a00b3
:102a88008034020000000000000000004f057800bc
:102a98004f04be000080fa00000006000000fa00a3
:102aa80000017800d000900060c62100808f50009f
:102ab80007003a00a208900000c72100808f50004c
:102ac80003003200100020000100e0000100320085
:102ad8000000eb000080fa00000006000000fa0089
:102ae800889fbe00000478000000e0001e0032004d
:102af80020ea8000800f54001b003200b90e070046
:102b080008007800e5ff0700e10f500015003a00c3
:102b18008884e80009007800660f0700b80890006c
:102b2800c0e28000808f500001003600c1e28800ba
:102b38006a09b90020c92100020040008900780014
:102b4800360f070020ea8000b8089000300890008f
:102b5800808f50000300390080340200000000001c
:102b680000000000a40e07004f04be000080fa0019
:102b7800000006000000fa00889fbe008a1f780047
:102b880000047800c5ff07000005eb00e10f5000c6
:102b98001c003a00d1e280000100e00015003a0074
:102ba80020ea800001057800b808900030089000fd
:102bb800808f5000010039001a0020008884e80046
:102bc800090078003b0f0700b8089000c0e28000b9
:102bd800808f500001003600c1e288006a09b90000
:102be80020c9210002004000890078000b0f07006f
:102bf80004003700ec00440000c72100070f07005d
:102c08000005eb000a0078004f0578004f04be006d
:102c18000080fa00000006000000fa0042a0a800a8
:102c2800603cef006c0e07000080fa000000060010
:102c38000000fa00881f78005a1ce2002b003a00b6
:102c4800543cec00541ce20005003a00e0e380002c
:102c5800d1e38000e1e38800d0e38800563cec0033
:102c6800e0e380001000e00022003a002a0037006c
:102c780098009000a0e28000808f500026003e005f
:102c88000880e8000b0f0700280890000000e0000b
:102c9800020032006c004400060f0700b8089000dc
:102ca800c0e28000808f500001003600c1e2880039
:102cb8008880e800380990006a11b90020c921000d
:102cc80002004000d50e0700e0e380001000e0009d
:102cd80011003200e0e380003000900030049000e2
:102ce8000800e000e2ff3a000b0037005c3cec0013
:102cf80009003700e0e380003000900030049000c5
:102d08000800e0000400320098009000a0e2800073
:102d1800808f5000daff36004f0478000080fa00f8
:102d2800000006000000fa00889fbe002d0e070074
:102d38005a3ced00d0e280000000e00033003a0089
:102d48005e1ce20031003200800478001500370074
:102d58006c004400d70e07000880e800d50e070075
:102d6800b8089000c0e28000808f50000100360053
:102d7800c1e288008880e800380990006a11b9002b
:102d880020c9210002004000a40e0700b8089000e6
:102d980020ea800030089000808f50000100390040
:102da80019002000701ce20005003200b0e380002a
:102db80030009000000478000000e000e4ff3a00d2
:102dc8005c1ce20013003a000500370098ff07007a
:102dd8005c3ced005c1ce20006003200fbff3700a3
:102de800e18f54000300320090e28000e10f5000b0
:102df80006003a00523cef00803402000000000058
:102e08000000000018002000050037000004eb0057
:102e1800030037005c1ce200f6ff3200ebff3700ce
:102e2800f50d0700080078004f04be000080fa0086
:102e3800000006000000fa00889fbe0080047800a9
:102e48000000e00016003200adfe0700a8e2800096
:102e580008844400449dec00960e070020ea800098
:102e680018009800a0e28000800f5400050031008f
:102e780021ea8000d0e380008180e800750e070019
:102e88000400370021ea8000e0e380008180e80048
:102e9800700e0700a3ff07000000e00003003a00df
:102ea8008034020000000000000000004f04be0053
:102eb8000080fa00000006000000fa00889fbe00ab
:102ec80080047800010478008dfe070099007800de
:102ed80008844000a0e28000808f50000300360084
:102ee800888f50000600360002003700888f500097
:102ef80005003e00a0e28000800f540002003e0062
:102f08000000eb000100370010002000880c78005a
:102f18000000e00010003200449dec00650e070040
:102f280020ea800018009800a0e28000800f54007a
:102f38000500310021ea8000d0e380008180e800ac
:102f4800440e07000400370021ea8000e0e3800017
:102f58008180e8003f0e070072ff07000000e000d4
:102f680003003a0080340200000000000000000066
:102f78004f04be000080fa00000006000000fa00be
:102f8800881f7800970d0700a8e280009a0d0700b7
:102f9800080078004f0478000080fa00000006005e
:102fa8000000fa00f0e280000080fa00000006004d
:102fb8000000fa005a1ce200150032001000200040
:102fc80090e2880019003700583ced0010003700e7
:102fd800c0e280006a00b90022c9210080004100d7
:102fe8001100900010019000920098006480400049
:102ff800800f510002003a001201900092009800e0
:10300800110090003000900020ea88000700370087
:10301800c0e280006a00b90022c92100620078007d
:103028000000e000e8ff3200e9ff37000080fa0006
:10303800000006000000fa00881f780001047800ec
:1030480021ea8000ec804000020e0700449dec005d
:10305800180e0700e10f440005003a0021ea80003d
:103068008180e80060c62100ec0d070010003700e1
:10307800a0e280000000440021ea8000900098004f
:10308800a1e28000810f50000500310021ea800094
:10309800d0e380008180e800ee0d070004003700cf
:1030a80021ea8000e0e380008180e800e90d070064
:1030b8004f0478000080fa00000006000000fa00c3
:1030c800881f780080007800100078000000e00079
:1030d80002003a0000047800020037003100900036
:1030e800300490006c004400f20d07005a1ce20006
:1030f8000e003a000880e800ee0d0700b8089000be
:10310800c0e28000808f500001003600c1e28800d4
:103118008880e800380990006a11b90020c92100a8
:1031280002004000bd0d070003003700ec0044001a
:1031380000c72100b90d07003808900021ea800077
:10314800b10890000001eb00810f50000100390028
:1031580012002000020078004f0478000080fa0076
:10316800000006000000fa00b1e2800001087800c3
:10317800a1e28000110098000080fa00000006001b
:103188000000fa00889fbe008a1f780000047800bb
:1031980001057800130d07001a0178008004eb0080
:1031a800e10f410014003200b0e28000980f1000d7
:1031b80004003200a1e2800018009000810f500046
:1031c8000c0036009800900001007800541cb500ef
:1031d800800f51000700360001007800541cb5002c
:1031e800000d510008007800deff07008004eb00a6
:1031f8000100370019002000ff0c070009007800c3
:103208004f0578004f04be000080fa000000060059
:103218000000fa001000200090e288000080fa0008
:10322800000006000000fa0090e48000e10f500062
:103238000300360080340200000000000000000097
:1032480059030700f8ff37000600fa00889fbe0000
:103258008a9fbe008c9fbe00000f78008105780011
:1032680002047800130798000406780025079800e0
:103278000605780000022000840e0700800478000c
:103288000080eb000900e000710032000a00e00055
:1032980003003a00080044007c0e0700000578008f
:1032a800ca0c98000a00e00004003a0009007800ff
:1032b8008f0e07000080eb0065003700080444000b
:1032c80008017800510a20000a007800d0f40700ad
:1032d800490d9000080445000884e900f80c98009e
:1032e8007a804400420020008b007800cff4070069
:1032f8000040eb00d05c9800300020001b0020004c
:10330800800f560002003e00e40516000c0078000d
:10331800b00c98008986e8000d0078003a0d070087
:103328006c84440008007800370d0700c904980031
:103338000b0c7800990c98001e0190009e007800f4
:103348000a0078005e0c0700800c7800a50c0700c6
:103358005e3cec00f0e28000e10f500015003a00fe
:1033680029ea880028c92100aacb21000800780092
:103378001c0d07006a044400880f5500fbff3a0043
:1033880080c82100170d0700e0c72100150d0700b0
:1033980000c72100130d070060c62100110d0700aa
:1033a80080c82100e0e38800e0c72100d0e388005e
:1033b80007003700601ce20005003a0020ea8000a0
:1033c80030089000800f56000100390029ea880073
:1033d800b908900020e38000808f5000010036007b
:1033e80021e38800623cec00c0e28000808f50003e
:1033f80001003600c1e288006a09b90020c921002d
:10340800020040008d007800040d07007a0c0700c8
:103418002e0090000000e00001003200090878004a
:10342800601ce2000900320020ea800030089000a9
:103438008c0f5000050031008034020000000000ad
:1034480000000000100020000100370010002000dc
:103458004f06be004f05be004f04be000080fa00b4
:10346800000006000000fa008003eb000003eb00f8
:10347800860278000602780086017800920620000d
:10348800e1472900609121006fff0700e10f50001c
:1034980004003a0042a0a80000e38800543cef0072
:1034a8001d0c07000080fa00000006000000fa006a
:1034b800d00e88000080fa00000006003600f800f0
:1034c800809fbe00829fbe00849fbe00869fbe0074
:1034d8000000fa00a9fe07000001780070e98000ea
:1034e80000005100710c2000810f50000b003600c5
:1034f80072e9880001e980000100ea00010070001b
:103508004f00de006100100000e98800201de20085
:1035180002003a00a03a2000e4ff07008400a90056
:103528000080fa004f03be004f02be004f01be00ec
:103538004f00be003600f90000400600809fbe0024
:10354800821f78000000fa0000188000a2142000f2
:103558000200b8004409dd004c00de0000007100e4
:10356800cc08de0030e9880085a0a9000080fa00b8
:103578004f0178004f00be00004006000000fa002e
:10358800889fbe00201de20010003200380b0700a3
:103598000004be0090e980008001eb00a20020003a
:1035a8008300780094030700e10f500007003a00f9
:1035b80048e9880059e9880090e980008001eb001b
:1035c800030178008000eb00f3030700803e200031
:1035d80018fe0700ebff37000000fa00889fbe00c6
:1035e8008a1f78008c9fbe000c0020008d1c2400d0
:1035f800a03a2000201de2004d0032006ae9800058
:1036080030e98000cf80de0093f807000200200038
:10361800832c2400bbf807000004be0090e980005a
:103628008001eb00a20020008300780072030700ed
:10363800e10f500007003a004ce980005de9800086
:1036480090e980008001eb00030178008000eb0026
:10365800d10307000a00e00019003a000200200028
:10366800031a24000c00be00e8f807000000e00080
:103678002e00340002002000031f24000c00be00ae
:10368800e4f807000000e00026003d0002002000ea
:10369800031a24000c00be00e0f807000200240012
:1036a800c34124003bf90700020020000312240054
:1036b80094f807006bf907001027b0001c003700ca
:1036c8000200200003f823000800be00cff807001e
:1036d8000000e0001500340002002000030424006c
:1036e8000800be00cbf807000000e0000d003d0018
:1036f8000200200003f823000800be00c7f80700f6
:1037080002002400c341240022f90700020020001f
:1037180003f023001ff9070052f907001027b00033
:1037280003003700204e200001003700102720003a
:103738005eff070060e980008000ea00808070007a
:10374800cf08de0081c04000cac2bf000014a1003b
:1037580001407000cae2b70040062000b5fd07002e
:10376800a3ff37004000fa00889fbe008a9fbe0072
:103778008c9fbe00401f2000aefd07000001eb003b
:10378800412829000000eb00130907000001eb00a5
:10379800512929000000eb000f0907000001eb0088
:1037a800912a29000000eb000b0907000001eb003b
:1037b800512c29000000eb00070907000001eb006d
:1037c800812d29000000eb00030907000c002000f0
:1037d8008d1c24000000eb00701f98008e05e80087
:1037e8000081eb008e0078000000eb0086080700df
:1037f8000000e000faff320090e980008001eb0051
:10380800a200200083007800fb020700e10f5000af
:103818000c003a001e40780022fdb700237def001f
:103828004ce980005de9800061e98000711f980023
:1038380090e980008001eb00030178008000eb0034
:10384800550307009e40780030c7b30080cf500072
:103858000e0032000040e80080cf50002300320004
:103868006740500080cf50004c003a00802e29005d
:10387800fe1890000100e00001003200002f29002e
:10388800801f7800702f29000f00370061e9800041
:103898000100ea00010070004f00de006100100026
:1038a80060e9880060e98000701f9800802e290078
:1038b800fe1890000100e00001003200002f2900ee
:1038c800801f780010302900801f78000b007800d6
:1038d80037f307000001eb008b0078000000eb00d5
:1038e800bd080700e4875700bdff37006011b80026
:1038f8000c00be0045f807000000e0000f003d0086
:103908000c04be0009f0a2000800be00f0f8070091
:103918000005ea00cf80de00cff707000001be00f7
:103928000800be003df8070002002000832c240098
:1039380098f80700e6f807000c0037000c00be00f6
:10394800e3f8070000057800cf80de00c2f7070023
:103958000001be000c00be0030f807000200200085
:10396800832c24008bf80700d9f80700801f780003
:103978008a1f780020312900801f78000b0078000a
:103988000bf307000001eb008b0078000000eb0050
:1039980091080700e687570091ff37000001eb0008
:1039a800b13229000000eb008b0807000001eb0092
:1039b800412829000000eb00870807000001eb0000
:1039c800512929000000eb00830807000001eb00e3
:1039d800912a29000000eb007f0807000001eb0096
:1039e800512c29000000eb007b0807000001eb00c8
:1039f800812d29000000eb007708070078ff3700c9
:103a08001e00fa00889fbe008a9fbe008c9fbe00e1
:103a1800d0c2b300004f78001047980020479800a4
:103a28000040eb00304798000c0020008d1c24005b
:103a3800800c2000600f98008000eb00510f980068
:103a480090e980008001eb004201200083007800ab
:103a580069020700e10f500013003a004ce98000aa
:103a68005de9800032e98000620f980060e980001b
:103a7800500f980022ddbf00004f780023ddbf0003
:103a88001047980024ddbf00204798000040eb0055
:103a98003047980090e980008001eb00030178002e
:103aa8008000eb00bc0207006011b8000c00be00eb
:103ab800d6f707000000e0000a003d000c04be0035
:103ac80009f0a2000800be0081f807000005ea001e
:103ad800cf80de0060f707000001be000800be00ce
:103ae800070037000c00be0079f8070000057800d1
:103af800cf80de0058f707000001be000c00be00b2
:103b0800c6f7070002002000832c240021f80700d4
:103b18006ff807000004780042062000ee089000c5
:103b2800110009008200d80080057800810478001f
:103b380080e980008001eb004201200083007800ca
:103b48002d020700e10f500047003a00800078007e
:103b580002060700201de20008003200881f7800d6
:103b68008a1f780020342900801f780064004700ed
:103b78008ff20700e6875700050037006401470009
:103b88008035290014000900305978005201b1002d
:103b980064004700de050700110020002000200017
:103ba800ee050700d03629005e0990000200e0000b
:103bb80001003200002f2900801f780020372900db
:103bc800801f78006400470079f20700640047000e
:103bd800cf0507001100200030002000df05070096
:103be800891f78008b1f7800d0372900801f780044
:103bf800640047006ef2070064004700c405070030
:103c08001100200040002000d40507008e1f780016
:103c180040392900801f78006400470064f20700db
:103c280064004700ba050700f100200030002000ba
:103c3800ca050700f0392900b5050700e100200092
:103c480040002000c5050700603a2900b0050700bc
:103c580080e980008001eb00030178008000eb0020
:103c68004d020700ee875700401f200071fc070037
:103c780073ff37000000fa00201de2000400320044
:103c8800cb62a900400620006afc0700faff370053
:103c9800cbc2bf004300de00610060000004a20048
:103ca8004300dd00b12c2000914078000134a100d0
:103cb80080c0700001007800cbe2b700401f2000f0
:103cc8005cfc0700ecff37000000fa00889fbe008c
:103cd8002ca3ef000000eb00501688004016880067
:103ce80090022000303a8800764040004467b600d1
:103cf80000ceb3004467b60012002000a1092000de
:103d080080072000337420008049780081497800ba
:103d18008249780071052000600420002374200087
:103d280080497800814978008249780043c7bf00fc
:103d38000047b200f04f5000fcff3a0042c7bf00f6
:103d48000058a300fdff3200c962a900c822a900db
:103d5800cb62a900ca22a900c8e2a8008400a90071
:103d68009400a8008200a800a4c0bf0081cfb300bf
:103d7800014060006040b300a4e0b70008042000e0
:103d880048038800ec080700ca42a8008004eb003a
:103d9800890e880000f02300a00e8800090e880014
:103da800190e8800c0c0b300c061b700c0cfb3000f
:103db800c061b600400d2300200e8800a03a200004
:103dc800d00e8800490e8800c941a800c8c1a800c3
:103dd800c841a900590e8800ca41a800c942a900d3
:103de800cd42a900c1e1a8002143a80020c3bf001b
:103df8007f4060000840700020e3b7002043a8001f
:103e08002343a80025e3a900f0c3b30024e3b700c7
:103e180030a3a8002ca3ef002ca3a900c862a80017
:103e280085a0a90095a0a80021e3a800590888004a
:103e380000352c007008880013e1a800f30407007f
:103e480010002000c1040700e03a290030050700ef
:103e580020002000bd040700703b29002c05070046
:103e680030002000b9040700103c2900280507008d
:103e780040002000b5040700703c29002405070015
:103e88008207200000582200010020008106070058
:103e980089007800100020004600070090e988009b
:103ea8000000e00004003200890178000901780070
:103eb8008000eb00b80107008000eb001000200034
:103ec8003c00070080e988000000e00004003200a0
:103ed8008001eb00030178008000eb00ae010700d1
:103ee8008003eb000003eb0086027800240020002a
:103ef80086017800220d2000f13c290020ac210029
:103f0800d1fc07008003eb000003eb008602780079
:103f1800340020008601780092062000413d2900e7
:103f280000af2100c8fc07008003eb000003eb0092
:103f3800860278002400200086017800220d2000e7
:103f4800913d290060bb2100bffc07008003eb0006
:103f58000003eb0086027800140020008601780038
:103f6800220d2000d13d290040d02100b6fc0700d9
:103f78008003eb000003eb008602780014002000a9
:103f88008601780092062000113e2900e0e3210016
:103f9800adfc070033fd07000000eb004f04be0036
:103fa8000080fa00000006000000fa000080fa0015
:103fb800000006000000fa00889fbe008a9fbe002d
:103fc80080047800010578000000e0002400320039
:103fd800600220002d0b0700000478000000e000bc
:103fe8001f0032000ac8b900800578000000e80008
:103ff800260b070000017800000c78000000e000a4
:10400800130032000b004000100498000000eb0081
:10401800600c9800220498000900e90000d0b9005b
:104028000000410030049800790c98000a149800a8
:104038000080eb00101498002014980068004400d9
:10404800e809070072004400e60907000500370088
:1040580008007800260b07000004eb000100370079
:104068000004eb00080078004f05be004f04be00b6
:104078000080fa00000006000000fa00889fbe00d9
:104088000004780057090700e80890008004eb0056
:1040980078089000808f500001003a001900200035
:1040a80055090700090078004f04be000080fa0097
:1040b800000006000000fa00881f7800000478005d
:1040c80048090700680c90004b09070008007800b1
:1040d8004f0478000080fa00000006000000fa0093
:1040e800600890000080fa00000006000000fa0056
:1040f800881f78000004780010007800fc0a070088
:1041080008007800fa0a07004f0478000080fa00d7
:10411800000006000000fa00881f780000047800fc
:1041280002007800081190000200e0001900320037
:104138000000e0000c003a00280090002df1070074
:10414800280090008810900001004000200498008a
:1041580098009000810f50000e0039001800780078
:10416800200498000b0037003800900021f1070068
:10417800380090008810900001005000300498002a
:10418800980f500003003100180090000100500003
:1041980030049800680890000000e800600c98005f
:1041a8004f0478000080fa00000006000000fa00c2
:1041b800889fbe000004780001027800820478001d
:1041c80003017800e0089000700890008001eb007f
:1041d800808f5000160031008400780008007800b5
:1041e800ccff070028109000e10f40000b003a00b8
:1041f800180890000000e0000c0032007200440033
:10420800aefb07000000e0000800320010002000ac
:10421800800c780080017800050037000000e80075
:10422800201498001300200001003700130020001c
:10423800030078004f04be000080fa00000006006a
:104248000000fa0000017800810178001000e00009
:104258000e003200300090008210900001004000f3
:104268003001980092009000810f50000200390040
:104278001200780030019800660041009000780034
:104288000211900003007800daf007000080fa00bd
:10429800000006000000fa00889fbe0000047800b5
:1042a80082047800600890000000e00017003200e7
:1042b80008007800e2ff0700680890000000e900a5
:1042c800600c980018109000e10f40000a003a00b6
:1042d800480090000000e0000b0032006800440035
:1042e80076fb07000000e000070032001000200005
:1042f800800c7800050037000000e80010149800d2
:104308001000200001003700100020004f04be00fc
:104318000080fa00000006000000fa00881f7800fc
:1043280000047800af080700281090000000e000a3
:1043380029003c000d003700180890000000e0003c
:104348000a003200720044005cfb07000000e00035
:1043580001003200aefb0700281090000000e900c1
:10436800201498004240a900f3ff3c000080eb00b5
:1043780020149800a00807009a0807001810900059
:104388000000e00018003c000d00370048009000d5
:104398000000e0000a0032006800440047fb070004
:1043a8000000e0000100320099fb0700181090009f
:1043b8000000e900101498004240a900f3ff3c00f7
:1043c8000080eb00101498008b0807004f04780059
:1043d8000080fa0000000600180890000000e000c5
:1043e800e2ff3200d7ff3700480090000000e000ed
:1043f800f3ff3200e8ff37000600fa00889fbe008e
:104408008a9fbe008c1f78008004780081057800a0
:1044180022079800030678000005eb0071080700e2
:10442800690890000000e0001f0032003904900085
:104438008b0078000900780081ff07000c00e0007d
:104448000b003a00690890000000e900e00c9800b1
:10445800490090000000e00010003200688044002d
:1044680016fb0700e10f50000c003a000800370067
:10447800b8049800190890000000e0000700320016
:10448800728044000dfb07000000e00003003200ca
:1044980080340200000000000000000056080700f9
:1044a80010002000370037002e0490000800e000bc
:1044b80003003a0050080700080078003100370070
:1044c8000a00e00003003a000e00780025fb070010
:1044d8001a0020004808070009f9070041080700ea
:1044e80019109000e10f400002003a000000eb00b4
:1044f8009014980029109000e10f400002003a0043
:104508000000eb00a01498003b080700e4004700f7
:104518000e0078001afb07000000e00015003a00c2
:1045280030080700690c9000330807000800e00015
:104538000c003a00ae00900072804400bdfa0700fb
:104548000900780074ff0700f6f907000000e00092
:10455800b2ff3a00803402000000000000000000b2
:10456800aeff3700090078006bff0700edf9070080
:10457800aaff37000900780067ff0700e9f907007c
:104588000000eb004f0678004f05be004f04be0048
:104598000080fa00000006000600fa00889fbe00ae
:1045a8008a9fbe008c1f780080047800010678007e
:1045b80022079800830578000005eb00090807002a
:1045c800e908900079089000808f500011003100b0
:1045d8000b0178008c00780009007800cdfe0700f8
:1045e800190890000000e0000700320072804400c3
:1045f800b2fa0700e10f500003003a0080340200cd
:104608000000000000000000fb0707001000200069
:10461800360037002e0490000800e00003003a003e
:10462800f507070008007800300037000a00e000ae
:1046380003003a000e007800cafa07001a002000aa
:10464800ed070700aef80700e6070700191090000d
:10465800e10f400002003a000000eb0090149800bf
:1046680029109000e10f400002003a000000eb0022
:10467800a0149800e0070700e40047000e00780047
:10468800bffa07000000e00014003a0009007800b3
:1046980079fe07000000e0000c003200ae00900038
:1046a8006880440063fa0700090078001aff0700d1
:1046b8009cf907000000e000c0ff3a0080340200c7
:1046c8000000000000000000bcff3700090078006f
:1046d80011ff070093f90700b8ff370009007800b9
:1046e8000dff07008ff907000000eb004f06780068
:1046f8004f05be004f04be000080fa00000006000f
:104708000000fa00e00890000100ea0001007000d3
:104718004f00de00610010000080fa000000060073
:104728000000fa00e00890000001eb00700890001b
:10473800808f500001003a0012002000020078002b
:104748000080fa00000006000000fa00889fbe0002
:104758008a1f780000047800010578008204780038
:1047680042a0a80044fe07000000e0000b00320051
:104778000900e00006003200e80044000900780063
:104788003c03070042a0a900c0ff2f001a00370011
:1047980042a0a9000000eb001700370042a0a900c2
:1047a8000000000042a0a800e808900078089000e7
:1047b8000001eb00808f50000d0031000001eb007c
:1047c8008a0078000800780052fe07001808900058
:1047d8000000e000050032007200440013040700e6
:1047e800b2ff2f000000e00001003a001200200094
:1047f80042a0a900020078004f0578004f04be00cf
:104808000080fa00000006000000fa00881f780007
:10481800000478008101780042a0a8006008900098
:104828000000e0000b003a000200e0000600320041
:10483800f2004400020078000e03070042a0a9001d
:10484800c0ff2f002700370042a0a9000000eb009e
:104858002400370042a0a9000000000042a0a800e0
:10486800680890000000e00002003a00800078002c
:104878001a003700380090008810900001004000ae
:104888003004980098009000810f50000200390011
:104898001800780030049800680890000000e900cb
:1048a800600c9800660044009000780008119000a1
:1048b800030078004fef0700480090000000e00078
:1048c8000500320068004400d8030700b1ff2f003c
:1048d8000000e00001003a001100200042a0a900f9
:1048e800010078004f0478000080fa0000000600fc
:1048f8000000fa00889fbe0000047800810178005b
:1049080082047800e008900070089000808f5000c2
:104918000f0031000001eb008300780008007800e8
:10492800fcfd07000900e00009003a0018089000a3
:104938000000e0000800320072004400bb030700da
:10494800110020000000e00004003a0002003700d7
:1049580089007800010037008000eb000100780032
:104968004f04be000080fa00000006000000fa00b4
:10497800889fbe00000478008101780082047800d6
:10498800600890000000e0001e003200380090002f
:1049980088109000010040003004980098009000b2
:1049a800810f500002003900180078003004980088
:1049b800680890000000e900600c98006600440058
:1049c80090007800081190000300780009ef0700b4
:1049d8001900e0000a003a00480090000000e000da
:1049e8000700320068004400900307000000e00060
:1049f8000300320010002000800c7800010037000e
:104a0800100020004f04be000080fa0000000600dd
:104a18000000fa00210020005000200065fd07007a
:104a2800f0e888008003eb000003eb0086027800c2
:104a3800340020008601780092062000c145290034
:104a4800e053220000fa07008003eb000003eb00ac
:104a5800c5d121002400200086017800920620009c
:104a680031462900e0702200f7f907000080fa00bb
:104a7800000006000600fa00889fbe008a9fbe005c
:104a88008c9fbe000006eb001d002000e2004700de
:104a980064004700010878001c0798008c00780023
:104aa800a00020000104dd0034f90700800478002c
:104ab800f0e880008001eb00080178008e007800a3
:104ac8004dfe07000000e000010032008de888007c
:104ad8002af9070089005000810f540001003600b0
:104ae8008de888006f004400808f50000100360078
:104af8008de888001e0090008000e80011079800eb
:104b0800e48f5000e6ff34001c079800640047005b
:104b18009005780018002000f0e880008001eb0084
:104b2800030178008b0078009bfe0700e10f50001e
:104b38000100320088e888001e0090000000e800ac
:104b480010079800e40f5000f3ff34001c0798008a
:104b58008c0078001a002000a00020000104dd006d
:104b680006f9070080047800f0e880008001eb0077
:104b7800080178008b00780087fe07000000e0003d
:104b8800010032008ae88800fcf80700890050001c
:104b9800810f5400010036008ae888006f00440045
:104ba800808f5000010036008ae888001e009000bf
:104bb8008000e80011079800e48f5000e6ff3400f9
:104bc8001a3def00e0e88000c4f70700d1e8800054
:104bd80050052000808f5000060032000004780045
:104be8004001200093f80700d0e88000880f5000ab
:104bf800fbff3a00400120008ef80700dce888003f
:104c08001c0798001800200059052000f0e88000d3
:104c18008001eb00030178008e007800f6fd0700a4
:104c2800e10f50000100320088e88800f0e88000b9
:104c38008001eb00030178008b00780056fe070026
:104c4800e10f50000100320088e88800d0e88000b9
:104c5800890f500001003a0088e88800e0e88000e9
:104c6800510020002af70700d0e88000890f500083
:104c780001003a0088e88800e0e880002100200070
:104c880023f707001e0090000000e80010079800b6
:104c9800e40f5000ddff3400d1e88000500520000b
:104ca800808f500006003200000478004001200088
:104cb80060f80700d0e88000880f5000fbff3a003a
:104cc800400120005bf80700dce888001c0798001a
:104cd80018002000f0e880008001eb000301780054
:104ce8008e007800c4fd0700e10f5000010032007b
:104cf80088e888001e0090000000e800100798006f
:104d0800e40f5000f3ff3400e0e8800073f7070079
:104d1800d1e8800050052000808f50000600320046
:104d2800000478004001200042f80700d0e8800025
:104d3800880f5000fbff3a00400120003df80700b3
:104d4800dce888001c07980018002000590520009e
:104d5800f0e880008001eb00030178008b00780008
:104d68000dfe0700e10f50000100320088e88800be
:104d7800f0e880008001eb00030178008e007800e5
:104d88009dfd0700e10f50000100320088e888000f
:104d9800d0e88000890f500001003a0088e88800b8
:104da800e0e8800051002000d9f60700d0e8800034
:104db800890f500001003a0088e88800e0e8800088
:104dc80021002000d2f607001e0090000000e80035
:104dd80010079800e40f5000ddff3400d1e8800090
:104de80050052000808f5000060032000004780033
:104df800400120000ff80700d0e88000880f50001d
:104e0800fbff3a00400120000af80700143dec00bf
:104e180021ff37000200fa00889fbe008a9fbe006b
:104e28008005eb00590520001a0020000000eb0067
:104e3800f6f6070051f80700000478000b0f780019
:104e4800d9e88800f0e880008b017800f20a200099
:104e58008e007800d0fd07000000e000010032005d
:104e68008ae8880045f8070088005000e00a20001a
:104e7800808f500003003600e00b2000808f500028
:104e8800010036008ae88800d9e888000000eb00b5
:104e9800def6070039f8070000047800d9e8880032
:104ea800f0e880008001eb00f20a20008e00780014
:104eb80051fd07000000e000010032008ae8880088
:104ec8002ef8070088005000e00a2000808f50006c
:104ed80003003600e00b2000808f500001003600f0
:104ee8008ae88800d9e88800123dec00cfff370037
:104ef8000000fa00a1e880000041eb00c0e8800053
:104f0800808f500001003a0012c0b30002407800c0
:104f18000004a2000081fb0091e88000b0e8800056
:104f2800808f500001003a000001eb0080e880000b
:104f3800e10f500001003a000001eb0090e880000a
:104f4800b0e88800a0e88000c0e888000200780087
:104f58000080fa00000006000000fa000000e000ef
:104f6800270034008000eb00000000000000000073
:104f78000000000000000000000000000000000029
:104f88000000000000000000000000000000000019
:104f98000000000000000000000000000000000009
:104fa80000000000000000000000000000000000f9
:104fb80000000000000000000000000000000000e9
:104fc80000000000000000000000000000000000d9
:104fd80000000000000000000000000000000000c9
:104fe80000000000000000000000000000000000b9
:104ff800000000008100e800810f5000daff3a004d
:105008000080fa00000006000000fa00889fbe0039
:10501800800478000000e000060034000004eb0083
:10502800803e2000ccff07000804e800888f540069
:10503800fbff3a004f04be000080fa0000000600a3
:105048000000fa004c00dd00cc22b7000080fa0016
:10505800000006000000fa004c00dd00f1ff20000f
:1050680001007000cc22b6000080fa0000000600a3
:105078000000fa000000eb00f1ff0700ca82a80058
:1050880080022000b4ff0700ca82a9000080eb005c
:10509800f0ff070010002000e9ff0700ca82a800ff
:1050a80020002000d8ff0700ca82a900e0ff2f00d7
:1050b800e8ff07000080fa00000006000000fa0080
:1050c800889fbe008004fb0044ccde000800780006
:1050d800dbff0700cac2a800100020009eff0700df
:1050e800ca82a800800220009bff0700ca82a9008c
:1050f800080078000080ea008180ea00d5ff0700f8
:105108006f84640008007800cdff070010002000bd
:1051180091ff0700ca82a800800220008eff0700c6
:10512800ca82a900cac2a900080078000080ea0063
:105138008180ea00c7ff07008002200086ff070081
:105148004f04be000080fa00000006000000fa00cc
:10515800889fbe00c1cfb30009fc2f00e20f5000aa
:105168001100320003003c00e10f500009003a0032
:105178000b00370091cfb30049f92f00e30f50001f
:1051880009003200d1cfb30049fd2f00e40f5000d1
:10519800050032008040eb008004eb00020037007d
:1051a80081cfb30009f82f000104fb000800780044
:1051b800a3ff0700ca82a8004001200066ff07007d
:1051c800ca82a900080078000080ea008180ea000d
:1051d800a0ff07006f8464000800780098ff0700ac
:1051e800ca82a800400120005bff0700ca82a9000c
:1051f800080078000080ea008180ea0095ff070037
:105208004f04be000080fa00000006000000fa000b
:10521800cae2a800800220007bff070020002000cf
:1052280087ff0700ca82a800800220004aff070003
:10523800ca82a900d0ff2f0086ff070020002000a7
:105248007fff0700ca82a8008002200042ff0700f3
:10525800ca82a900d0ff2f007eff0700800020002f
:1052680077ff0700ca82a800800220003aff0700e3
:10527800ca82a90070ff2f0076ff07000000eb002c
:105288006fff0700ca82a8008002200032ff0700d3
:10529800ca82a9000080eb006eff0700e000200032
:1052a80067ff0700ca82a800800220002aff0700c3
:1052b800ca82a90010ff2f0066ff07006cff0700d5
:1052c8000000eb005eff0700ca82a80080022000f1
:1052d80021ff0700ca82a9000080eb005dff0700dc
:1052e8006000200056ff0700ca82a8008002200044
:1052f80019ff0700ca82a90090ff2f0055ff070079
:105308002000200040ff07000080fa00000006008f
:105318000000fa00889fbe008a9fbe0080057800c2
:10532800000578008004eb000300370068c07d00aa
:1053380062ff07008904e800090478000a00780081
:10534800cdec0700890f5000f8ff3e004f05be0066
:105358004f04be000080fa00000006000000fa00ba
:10536800889fbe0002ccb300e20f50000d0032004f
:1053780003003c00e10f500007003a000800370026
:1053880042c9b300e30f50000600320042cdb3001b
:10539800e40f5000030032000041eb000100370029
:1053a80002c8b300014441000844e9000804fb00b6
:1053b800c4c4de000900780021ff0700ca82a800e3
:1053c80040002000e4fe0700ca82a9000900780016
:1053d8000080ea008180ea001eff07006f04640075
:1053e8000800780016ff0700ca82a80040002000c5
:1053f800d9fe0700ca82a900080078000080ea00e8
:105408008180ea0013ff07004f04be000080fa0005
:10541800000006000000fa00881f780088002000bd
:105428000000e000040032000004eb00e10f50002f
:1054380001003a00a80020000800780000ff0700db
:10544800ca82a80080022000c3fe0700ca82a90001
:10545800080078000080ea008180ea00fdfe07006d
:1054680080022000bcfe07004f0478000080fa008c
:10547800000006000000fa00889fbe0000017800c6
:1054880081047800e0e5800000044100489dec00bc
:105498000805070040ea800018009800e0e5800051
:1054a800800f54000500310041ea80008180e80047
:1054b80060e68000e70407000400370041ea800046
:1054c8008180e80070e68000e20407000900e0003f
:1054d8000400320041ea8000ec80400009007800b6
:1054e800dc0407004f04be000080fa00000006003c
:1054f8000000fa00881f7800c21ce2001a0032007f
:1055080042a0a80010e680000000e00002003a0077
:10551800000478000200370040e680003004900064
:105528006c004400e304070042a0a9000880e800da
:10553800e0040700b8089000d0e58000808f500094
:1055480001003600d1e588008880e800380990001d
:105558006a11b90040ce210002004000af040700e4
:10556800c21ce200e6ff3a0084f6070001e680006c
:1055780001005000f0e588002e003700e1e58000ca
:105588008100e800e1e588000000e900f0e5880016
:105598000100e00004003a0070e6800062e6800046
:1055a80072e6880060e6880070e680001000e0007f
:1055b8004e003a001f00370098009000e0e5800098
:1055c800808f50001b003e0042a0a8000880e80021
:1055d800b8040700280890000000e000020032002c
:1055e8006c004400b304070042a0a900b80890006a
:1055f800d0e58000808f500001003600d1e588009a
:105608008880e800380990006a11b90040ce21006e
:10561800020040008104070070e680001000e000ee
:105628000400320030009000300490000800e000d0
:10563800e1ff3a00f0e580000000e000cfff3a000b
:10564800e0e5800000e68800d4e580006a20b90023
:1056580042ce2100800041001100e0001b00320012
:105668000b0037000201e8006a005000840f510067
:1056780002003a00d3e58800240037008301e900de
:10568800800078001000e000f6ff3200d3e58800c3
:105698001100900010019000920098006480400072
:1056a800800f510002003a00120190009200980009
:1056b800110090003000900040ea88001001780046
:1056c800c008900002000100100037000400e0004c
:1056d8000e0032006a20b900a2cd2100000041006e
:1056e800840178000001eb00e4ff370030009000ef
:1056f800300490000800e000ceff3200180090004f
:10570800808f5000cbff3900afff37004f0478007f
:105718000080fa00000006000000fa00889fbe0022
:105728008a9fbe008c9fbe00800678000104780026
:1057380002067800c00120005405070080047800a4
:105748000080eb000900e00033003200481de20051
:1057580012003a0049ea88004ace21008bcf210086
:105768000a0078001f0407006a0545008a8f550063
:10577800fbff3a00a0cd21001a04070000cd21004c
:105788001804070020cc210016040700a0cd210032
:1057980070e6880000cd210060e68800e10f540023
:1057a80003003600180020003b00200001003700ed
:1057b800e40514000000eb00d00c9800b80c980029
:1057c800cc0c9800090578000d1d78000a007800b7
:1057d8000d0407006c844400080078000a040700e0
:1057e800c9049800990c98000b0c7800b90890002f
:1057f800d0e58000808f500001003600d1e5880098
:105808006a09b90040ce2100020040008a007800f1
:1058180002040700100020004f06be004f05be001e
:105828004f04be000080fa00000006000000fa00e5
:10583800889fbe00900078000100e00002003a0056
:10584800810478000200370030009000b004900016
:105858006c8444000800780016040700880078006b
:1058680020cc2100ed030700b908900040ea800031
:10587800300890000001eb00808f500001003900d3
:1058880012002000020078004f04be000080fa00d9
:10589800000006000000fa00881f78008a9fbe00fa
:1058a8000005be0002047800c922a800cb02a800a7
:1058b8003000200040368800900020002035880005
:1058c8001100200002007800baf90700f0e988000a
:1058d8001100200008007800b6f90700e0e9880008
:1058e8002062a9002002a90090cfb3002062b60070
:1058f80020a2a90020c2a90020e2a900c0cfb300bd
:105908002162b6002182a90021a2a90021e2a800f3
:10591800e00f5500e08f5d00030035000a00be006f
:10592800cdef070009003700610065000100200085
:105938008b01d1000a81d3000200700083807000bf
:10594800c5ef07000001be0035f007000200200087
:10595800031824008ff007000001be00006829002a
:1059680081c12400e7ef07000200200003f02300b4
:105978002af00700bbf0070040118800f0c3b3000d
:105988002262b6002342a80023c2a90023a2a900cc
:1059980023e2a90042a0a8008560a9008580a9008b
:1059a800a9c0bf00f1c8b300014060000044a000d6
:1059b800a9e0b700aac0bf0081cfb30001406000d2
:1059c8000004a000aae0b7009580a8009560a80090
:1059d80022c2bf000008a30004003200301180007a
:1059e80022c2bf000008a300fcff3a0010002000fc
:1059f800d0e988000000eb004f05be004f04780096
:105a08000080fa00000006000000fa00f0e98000bb
:105a18008001eb0078fa0700800078000000ea00b7
:105a2800010070004f00de000080fa000000060050
:105a38000200fa00014f7800e0e980008001eb00e5
:105a48008e007800d4fa07008000eb00e10f5000c8
:105a580006003a00110020003a1de200030032005f
:105a68003a3def008580a800110020000100780071
:105a78000080fa00000006000000fa000080fa002a
